{
  "_format": "hh-sol-artifact-1",
  "contractName": "MyNFT",
  "sourceName": "contracts/Lock.sol",
  "abi": [
    {
      "inputs": [],
      "stateMutability": "nonpayable",
      "type": "constructor"
    },
    {
      "anonymous": false,
      "inputs": [
        {
          "indexed": true,
          "internalType": "address",
          "name": "owner",
          "type": "address"
        },
        {
          "indexed": true,
          "internalType": "address",
          "name": "approved",
          "type": "address"
        },
        {
          "indexed": true,
          "internalType": "uint256",
          "name": "tokenId",
          "type": "uint256"
        }
      ],
      "name": "Approval",
      "type": "event"
    },
    {
      "anonymous": false,
      "inputs": [
        {
          "indexed": true,
          "internalType": "address",
          "name": "owner",
          "type": "address"
        },
        {
          "indexed": true,
          "internalType": "address",
          "name": "operator",
          "type": "address"
        },
        {
          "indexed": false,
          "internalType": "bool",
          "name": "approved",
          "type": "bool"
        }
      ],
      "name": "ApprovalForAll",
      "type": "event"
    },
    {
      "anonymous": false,
      "inputs": [
        {
          "indexed": true,
          "internalType": "address",
          "name": "from",
          "type": "address"
        },
        {
          "indexed": true,
          "internalType": "address",
          "name": "to",
          "type": "address"
        },
        {
          "indexed": true,
          "internalType": "uint256",
          "name": "tokenId",
          "type": "uint256"
        }
      ],
      "name": "Transfer",
      "type": "event"
    },
    {
      "inputs": [
        {
          "internalType": "address",
          "name": "to",
          "type": "address"
        },
        {
          "internalType": "uint256",
          "name": "tokenId",
          "type": "uint256"
        }
      ],
      "name": "approve",
      "outputs": [],
      "stateMutability": "nonpayable",
      "type": "function"
    },
    {
      "inputs": [
        {
          "internalType": "address",
          "name": "owner",
          "type": "address"
        }
      ],
      "name": "balanceOf",
      "outputs": [
        {
          "internalType": "uint256",
          "name": "",
          "type": "uint256"
        }
      ],
      "stateMutability": "view",
      "type": "function"
    },
    {
      "inputs": [
        {
          "internalType": "uint256",
          "name": "tokenId",
          "type": "uint256"
        }
      ],
      "name": "getApproved",
      "outputs": [
        {
          "internalType": "address",
          "name": "",
          "type": "address"
        }
      ],
      "stateMutability": "view",
      "type": "function"
    },
    {
      "inputs": [
        {
          "internalType": "address",
          "name": "owner",
          "type": "address"
        },
        {
          "internalType": "address",
          "name": "operator",
          "type": "address"
        }
      ],
      "name": "isApprovedForAll",
      "outputs": [
        {
          "internalType": "bool",
          "name": "",
          "type": "bool"
        }
      ],
      "stateMutability": "view",
      "type": "function"
    },
    {
      "inputs": [],
      "name": "mint",
      "outputs": [
        {
          "internalType": "uint256",
          "name": "",
          "type": "uint256"
        }
      ],
      "stateMutability": "nonpayable",
      "type": "function"
    },
    {
      "inputs": [],
      "name": "name",
      "outputs": [
        {
          "internalType": "string",
          "name": "",
          "type": "string"
        }
      ],
      "stateMutability": "view",
      "type": "function"
    },
    {
      "inputs": [
        {
          "internalType": "uint256",
          "name": "tokenId",
          "type": "uint256"
        }
      ],
      "name": "ownerOf",
      "outputs": [
        {
          "internalType": "address",
          "name": "",
          "type": "address"
        }
      ],
      "stateMutability": "view",
      "type": "function"
    },
    {
      "inputs": [
        {
          "internalType": "address",
          "name": "from",
          "type": "address"
        },
        {
          "internalType": "address",
          "name": "to",
          "type": "address"
        },
        {
          "internalType": "uint256",
          "name": "tokenId",
          "type": "uint256"
        }
      ],
      "name": "safeTransferFrom",
      "outputs": [],
      "stateMutability": "nonpayable",
      "type": "function"
    },
    {
      "inputs": [
        {
          "internalType": "address",
          "name": "from",
          "type": "address"
        },
        {
          "internalType": "address",
          "name": "to",
          "type": "address"
        },
        {
          "internalType": "uint256",
          "name": "tokenId",
          "type": "uint256"
        },
        {
          "internalType": "bytes",
          "name": "data",
          "type": "bytes"
        }
      ],
      "name": "safeTransferFrom",
      "outputs": [],
      "stateMutability": "nonpayable",
      "type": "function"
    },
    {
      "inputs": [
        {
          "internalType": "address",
          "name": "operator",
          "type": "address"
        },
        {
          "internalType": "bool",
          "name": "approved",
          "type": "bool"
        }
      ],
      "name": "setApprovalForAll",
      "outputs": [],
      "stateMutability": "nonpayable",
      "type": "function"
    },
    {
      "inputs": [
        {
          "internalType": "bytes4",
          "name": "interfaceId",
          "type": "bytes4"
        }
      ],
      "name": "supportsInterface",
      "outputs": [
        {
          "internalType": "bool",
          "name": "",
          "type": "bool"
        }
      ],
      "stateMutability": "view",
      "type": "function"
    },
    {
      "inputs": [],
      "name": "symbol",
      "outputs": [
        {
          "internalType": "string",
          "name": "",
          "type": "string"
        }
      ],
      "stateMutability": "view",
      "type": "function"
    },
    {
      "inputs": [],
      "name": "tokenCounter",
      "outputs": [
        {
          "internalType": "uint256",
          "name": "",
          "type": "uint256"
        }
      ],
      "stateMutability": "view",
      "type": "function"
    },
    {
      "inputs": [
        {
          "internalType": "uint256",
          "name": "tokenId",
          "type": "uint256"
        }
      ],
      "name": "tokenURI",
      "outputs": [
        {
          "internalType": "string",
          "name": "",
          "type": "string"
        }
      ],
      "stateMutability": "view",
      "type": "function"
    },
    {
      "inputs": [
        {
          "internalType": "address",
          "name": "from",
          "type": "address"
        },
        {
          "internalType": "address",
          "name": "to",
          "type": "address"
        },
        {
          "internalType": "uint256",
          "name": "tokenId",
          "type": "uint256"
        }
      ],
      "name": "transferFrom",
      "outputs": [],
      "stateMutability": "nonpayable",
      "type": "function"
    }
  ],
  "bytecode": "0x608060405234801561000f575f5ffd5b506040518060400160405280600581526020017f4d794e46540000000000000000000000000000000000000000000000000000008152506040518060400160405280600481526020017f4d4e465400000000000000000000000000000000000000000000000000000000815250815f908161008a91906102e6565b50806001908161009a91906102e6565b5050505f6006819055506103b5565b5f81519050919050565b7f4e487b71000000000000000000000000000000000000000000000000000000005f52604160045260245ffd5b7f4e487b71000000000000000000000000000000000000000000000000000000005f52602260045260245ffd5b5f600282049050600182168061012457607f821691505b602082108103610137576101366100e0565b5b50919050565b5f819050815f5260205f209050919050565b5f6020601f8301049050919050565b5f82821b905092915050565b5f600883026101997fffffffffffffffffffffffffffffffffffffffffffffffffffffffffffffffff8261015e565b6101a3868361015e565b95508019841693508086168417925050509392505050565b5f819050919050565b5f819050919050565b5f6101e76101e26101dd846101bb565b6101c4565b6101bb565b9050919050565b5f819050919050565b610200836101cd565b61021461020c826101ee565b84845461016a565b825550505050565b5f5f905090565b61022b61021c565b6102368184846101f7565b505050565b5b818110156102595761024e5f82610223565b60018101905061023c565b5050565b601f82111561029e5761026f8161013d565b6102788461014f565b81016020851015610287578190505b61029b6102938561014f565b83018261023b565b50505b505050565b5f82821c905092915050565b5f6102be5f19846008026102a3565b1980831691505092915050565b5f6102d683836102af565b9150826002028217905092915050565b6102ef826100a9565b67ffffffffffffffff811115610308576103076100b3565b5b610312825461010d565b61031d82828561025d565b5f60209050601f83116001811461034e575f841561033c578287015190505b61034685826102cb565b8655506103ad565b601f19841661035c8661013d565b5f5b828110156103835784890151825560018201915060208501945060208101905061035e565b868310156103a0578489015161039c601f8916826102af565b8355505b6001600288020188555050505b505050505050565b612660806103c25f395ff3fe608060405234801561000f575f5ffd5b50600436106100f3575f3560e01c80636352211e11610095578063b88d4fde11610064578063b88d4fde14610281578063c87b56dd1461029d578063d082e381146102cd578063e985e9c5146102eb576100f3565b80636352211e146101e757806370a082311461021757806395d89b4114610247578063a22cb46514610265576100f3565b8063095ea7b3116100d1578063095ea7b3146101755780631249c58b1461019157806323b872dd146101af57806342842e0e146101cb576100f3565b806301ffc9a7146100f757806306fdde0314610127578063081812fc14610145575b5f5ffd5b610111600480360381019061010c9190611822565b61031b565b60405161011e9190611867565b60405180910390f35b61012f6103fc565b60405161013c91906118f0565b60405180910390f35b61015f600480360381019061015a9190611943565b61048b565b60405161016c91906119ad565b60405180910390f35b61018f600480360381019061018a91906119f0565b6104cd565b005b6101996105e3565b6040516101a69190611a3d565b60405180910390f35b6101c960048036038101906101c49190611a56565b610690565b005b6101e560048036038101906101e09190611a56565b6106f0565b005b61020160048036038101906101fc9190611943565b61070f565b60405161020e91906119ad565b60405180910390f35b610231600480360381019061022c9190611aa6565b6107bb565b60405161023e9190611a3d565b60405180910390f35b61024f61086f565b60405161025c91906118f0565b60405180910390f35b61027f600480360381019061027a9190611afb565b6108ff565b005b61029b60048036038101906102969190611c65565b610915565b005b6102b760048036038101906102b29190611943565b610977565b6040516102c491906118f0565b60405180910390f35b6102d56109dc565b6040516102e29190611a3d565b60405180910390f35b61030560048036038101906103009190611ce5565b6109e2565b6040516103129190611867565b60405180910390f35b5f7f80ac58cd000000000000000000000000000000000000000000000000000000007bffffffffffffffffffffffffffffffffffffffffffffffffffffffff1916827bffffffffffffffffffffffffffffffffffffffffffffffffffffffff191614806103e557507f5b5e139f000000000000000000000000000000000000000000000000000000007bffffffffffffffffffffffffffffffffffffffffffffffffffffffff1916827bffffffffffffffffffffffffffffffffffffffffffffffffffffffff1916145b806103f557506103f482610a70565b5b9050919050565b60605f805461040a90611d50565b80601f016020809104026020016040519081016040528092919081815260200182805461043690611d50565b80156104815780601f1061045857610100808354040283529160200191610481565b820191905f5260205f20905b81548152906001019060200180831161046457829003601f168201915b5050505050905090565b5f61049582610ad9565b60045f8381526020019081526020015f205f9054906101000a900473ffffffffffffffffffffffffffffffffffffffff169050919050565b5f6104d78261070f565b90508073ffffffffffffffffffffffffffffffffffffffff168373ffffffffffffffffffffffffffffffffffffffff1603610547576040517f08c379a000000000000000000000000000000000000000000000000000000000815260040161053e90611df0565b60405180910390fd5b8073ffffffffffffffffffffffffffffffffffffffff16610566610b24565b73ffffffffffffffffffffffffffffffffffffffff16148061059557506105948161058f610b24565b6109e2565b5b6105d4576040517f08c379a00000000000000000000000000000000000000000000000000000000081526004016105cb90611e7e565b60405180910390fd5b6105de8383610b2b565b505050565b5f6106236040518060400160405280601c81526020017f4d696e74696e67207374617274656420666f7220616464726573733a0000000081525033610be1565b5f60065490506106333382610c7d565b6106726040518060400160405280601081526020017f4d696e74656420746f6b656e2049443a0000000000000000000000000000000081525082610c9a565b60065f81548092919061068490611ec9565b91905055508091505090565b6106a161069b610b24565b82610d36565b6106e0576040517f08c379a00000000000000000000000000000000000000000000000000000000081526004016106d790611f80565b60405180910390fd5b6106eb838383610dca565b505050565b61070a83838360405180602001604052805f815250610915565b505050565b5f5f60025f8481526020019081526020015f205f9054906101000a900473ffffffffffffffffffffffffffffffffffffffff1690505f73ffffffffffffffffffffffffffffffffffffffff168173ffffffffffffffffffffffffffffffffffffffff16036107b2576040517f08c379a00000000000000000000000000000000000000000000000000000000081526004016107a990611fe8565b60405180910390fd5b80915050919050565b5f5f73ffffffffffffffffffffffffffffffffffffffff168273ffffffffffffffffffffffffffffffffffffffff160361082a576040517f08c379a000000000000000000000000000000000000000000000000000000000815260040161082190612076565b60405180910390fd5b60035f8373ffffffffffffffffffffffffffffffffffffffff1673ffffffffffffffffffffffffffffffffffffffff1681526020019081526020015f20549050919050565b60606001805461087e90611d50565b80601f01602080910402602001604051908101604052809291908181526020018280546108aa90611d50565b80156108f55780601f106108cc576101008083540402835291602001916108f5565b820191905f5260205f20905b8154815290600101906020018083116108d857829003601f168201915b5050505050905090565b61091161090a610b24565b8383611025565b5050565b610926610920610b24565b83610d36565b610965576040517f08c379a000000000000000000000000000000000000000000000000000000000815260040161095c90611f80565b60405180910390fd5b6109718484848461118c565b50505050565b606061098282610ad9565b5f61098b6111e8565b90505f8151116109a95760405180602001604052805f8152506109d4565b806109b3846111fe565b6040516020016109c49291906120ce565b6040516020818303038152906040525b915050919050565b60065481565b5f60055f8473ffffffffffffffffffffffffffffffffffffffff1673ffffffffffffffffffffffffffffffffffffffff1681526020019081526020015f205f8373ffffffffffffffffffffffffffffffffffffffff1673ffffffffffffffffffffffffffffffffffffffff1681526020019081526020015f205f9054906101000a900460ff16905092915050565b5f7f01ffc9a7000000000000000000000000000000000000000000000000000000007bffffffffffffffffffffffffffffffffffffffffffffffffffffffff1916827bffffffffffffffffffffffffffffffffffffffffffffffffffffffff1916149050919050565b610ae281611357565b610b21576040517f08c379a0000000000000000000000000000000000000000000000000000000008152600401610b1890611fe8565b60405180910390fd5b50565b5f33905090565b8160045f8381526020019081526020015f205f6101000a81548173ffffffffffffffffffffffffffffffffffffffff021916908373ffffffffffffffffffffffffffffffffffffffff160217905550808273ffffffffffffffffffffffffffffffffffffffff16610b9b8361070f565b73ffffffffffffffffffffffffffffffffffffffff167f8c5be1e5ebec7d5bd14f71427d1e84f3dd0314c0f7b2291e5b200ac8c7c3b92560405160405180910390a45050565b610c798282604051602401610bf79291906120f1565b6040516020818303038152906040527f319af333000000000000000000000000000000000000000000000000000000007bffffffffffffffffffffffffffffffffffffffffffffffffffffffff19166020820180517bffffffffffffffffffffffffffffffffffffffffffffffffffffffff83818316178352505050506113bf565b5050565b610c96828260405180602001604052805f8152506113e5565b5050565b610d328282604051602401610cb092919061211f565b6040516020818303038152906040527f9710a9d0000000000000000000000000000000000000000000000000000000007bffffffffffffffffffffffffffffffffffffffffffffffffffffffff19166020820180517bffffffffffffffffffffffffffffffffffffffffffffffffffffffff83818316178352505050506113bf565b5050565b5f5f610d418361070f565b90508073ffffffffffffffffffffffffffffffffffffffff168473ffffffffffffffffffffffffffffffffffffffff161480610d835750610d8281856109e2565b5b80610dc157508373ffffffffffffffffffffffffffffffffffffffff16610da98461048b565b73ffffffffffffffffffffffffffffffffffffffff16145b91505092915050565b8273ffffffffffffffffffffffffffffffffffffffff16610dea8261070f565b73ffffffffffffffffffffffffffffffffffffffff1614610e40576040517f08c379a0000000000000000000000000000000000000000000000000000000008152600401610e37906121bd565b60405180910390fd5b5f73ffffffffffffffffffffffffffffffffffffffff168273ffffffffffffffffffffffffffffffffffffffff1603610eae576040517f08c379a0000000000000000000000000000000000000000000000000000000008152600401610ea59061224b565b60405180910390fd5b610eb983838361143f565b610ec35f82610b2b565b600160035f8573ffffffffffffffffffffffffffffffffffffffff1673ffffffffffffffffffffffffffffffffffffffff1681526020019081526020015f205f828254610f109190612269565b92505081905550600160035f8473ffffffffffffffffffffffffffffffffffffffff1673ffffffffffffffffffffffffffffffffffffffff1681526020019081526020015f205f828254610f64919061229c565b925050819055508160025f8381526020019081526020015f205f6101000a81548173ffffffffffffffffffffffffffffffffffffffff021916908373ffffffffffffffffffffffffffffffffffffffff160217905550808273ffffffffffffffffffffffffffffffffffffffff168473ffffffffffffffffffffffffffffffffffffffff167fddf252ad1be2c89b69c2b068fc378daa952ba7f163c4a11628f55a4df523b3ef60405160405180910390a4611020838383611444565b505050565b8173ffffffffffffffffffffffffffffffffffffffff168373ffffffffffffffffffffffffffffffffffffffff1603611093576040517f08c379a000000000000000000000000000000000000000000000000000000000815260040161108a90612319565b60405180910390fd5b8060055f8573ffffffffffffffffffffffffffffffffffffffff1673ffffffffffffffffffffffffffffffffffffffff1681526020019081526020015f205f8473ffffffffffffffffffffffffffffffffffffffff1673ffffffffffffffffffffffffffffffffffffffff1681526020019081526020015f205f6101000a81548160ff0219169083151502179055508173ffffffffffffffffffffffffffffffffffffffff168373ffffffffffffffffffffffffffffffffffffffff167f17307eab39ab6107e8899845ad3d59bd9653f200f220920489ca2b5937696c318360405161117f9190611867565b60405180910390a3505050565b611197848484610dca565b6111a384848484611449565b6111e2576040517f08c379a00000000000000000000000000000000000000000000000000000000081526004016111d9906123a7565b60405180910390fd5b50505050565b606060405180602001604052805f815250905090565b60605f8203611244576040518060400160405280600181526020017f30000000000000000000000000000000000000000000000000000000000000008152509050611352565b5f8290505f5b5f821461127357808061125c90611ec9565b915050600a8261126c91906123f2565b915061124a565b5f8167ffffffffffffffff81111561128e5761128d611b41565b5b6040519080825280601f01601f1916602001820160405280156112c05781602001600182028036833780820191505090505b5090505b5f851461134b576001826112d89190612269565b9150600a856112e79190612422565b60306112f3919061229c565b60f81b81838151811061130957611308612452565b5b60200101907effffffffffffffffffffffffffffffffffffffffffffffffffffffffffffff191690815f1a905350600a8561134491906123f2565b94506112c4565b8093505050505b919050565b5f5f73ffffffffffffffffffffffffffffffffffffffff1660025f8481526020019081526020015f205f9054906101000a900473ffffffffffffffffffffffffffffffffffffffff1673ffffffffffffffffffffffffffffffffffffffff1614159050919050565b5f815190505f6a636f6e736f6c652e6c6f679050602083015f5f8483855afa5050505050565b6113ef83836115cb565b6113fb5f848484611449565b61143a576040517f08c379a0000000000000000000000000000000000000000000000000000000008152600401611431906123a7565b60405180910390fd5b505050565b505050565b505050565b5f6114698473ffffffffffffffffffffffffffffffffffffffff1661179a565b156115be578373ffffffffffffffffffffffffffffffffffffffff1663150b7a02611492610b24565b8786866040518563ffffffff1660e01b81526004016114b494939291906124d1565b6020604051808303815f875af19250505080156114ef57506040513d601f19601f820116820180604052508101906114ec919061252f565b60015b61156e573d805f811461151d576040519150601f19603f3d011682016040523d82523d5f602084013e611522565b606091505b505f815103611566576040517f08c379a000000000000000000000000000000000000000000000000000000000815260040161155d906123a7565b60405180910390fd5b805181602001fd5b63150b7a0260e01b7bffffffffffffffffffffffffffffffffffffffffffffffffffffffff1916817bffffffffffffffffffffffffffffffffffffffffffffffffffffffff1916149150506115c3565b600190505b949350505050565b5f73ffffffffffffffffffffffffffffffffffffffff168273ffffffffffffffffffffffffffffffffffffffff1603611639576040517f08c379a0000000000000000000000000000000000000000000000000000000008152600401611630906125a4565b60405180910390fd5b61164281611357565b15611682576040517f08c379a00000000000000000000000000000000000000000000000000000000081526004016116799061260c565b60405180910390fd5b61168d5f838361143f565b600160035f8473ffffffffffffffffffffffffffffffffffffffff1673ffffffffffffffffffffffffffffffffffffffff1681526020019081526020015f205f8282546116da919061229c565b925050819055508160025f8381526020019081526020015f205f6101000a81548173ffffffffffffffffffffffffffffffffffffffff021916908373ffffffffffffffffffffffffffffffffffffffff160217905550808273ffffffffffffffffffffffffffffffffffffffff165f73ffffffffffffffffffffffffffffffffffffffff167fddf252ad1be2c89b69c2b068fc378daa952ba7f163c4a11628f55a4df523b3ef60405160405180910390a46117965f8383611444565b5050565b5f5f8273ffffffffffffffffffffffffffffffffffffffff163b119050919050565b5f604051905090565b5f5ffd5b5f5ffd5b5f7fffffffff0000000000000000000000000000000000000000000000000000000082169050919050565b611801816117cd565b811461180b575f5ffd5b50565b5f8135905061181c816117f8565b92915050565b5f60208284031215611837576118366117c5565b5b5f6118448482850161180e565b91505092915050565b5f8115159050919050565b6118618161184d565b82525050565b5f60208201905061187a5f830184611858565b92915050565b5f81519050919050565b5f82825260208201905092915050565b8281835e5f83830152505050565b5f601f19601f8301169050919050565b5f6118c282611880565b6118cc818561188a565b93506118dc81856020860161189a565b6118e5816118a8565b840191505092915050565b5f6020820190508181035f83015261190881846118b8565b905092915050565b5f819050919050565b61192281611910565b811461192c575f5ffd5b50565b5f8135905061193d81611919565b92915050565b5f60208284031215611958576119576117c5565b5b5f6119658482850161192f565b91505092915050565b5f73ffffffffffffffffffffffffffffffffffffffff82169050919050565b5f6119978261196e565b9050919050565b6119a78161198d565b82525050565b5f6020820190506119c05f83018461199e565b92915050565b6119cf8161198d565b81146119d9575f5ffd5b50565b5f813590506119ea816119c6565b92915050565b5f5f60408385031215611a0657611a056117c5565b5b5f611a13858286016119dc565b9250506020611a248582860161192f565b9150509250929050565b611a3781611910565b82525050565b5f602082019050611a505f830184611a2e565b92915050565b5f5f5f60608486031215611a6d57611a6c6117c5565b5b5f611a7a868287016119dc565b9350506020611a8b868287016119dc565b9250506040611a9c8682870161192f565b9150509250925092565b5f60208284031215611abb57611aba6117c5565b5b5f611ac8848285016119dc565b91505092915050565b611ada8161184d565b8114611ae4575f5ffd5b50565b5f81359050611af581611ad1565b92915050565b5f5f60408385031215611b1157611b106117c5565b5b5f611b1e858286016119dc565b9250506020611b2f85828601611ae7565b9150509250929050565b5f5ffd5b5f5ffd5b7f4e487b71000000000000000000000000000000000000000000000000000000005f52604160045260245ffd5b611b77826118a8565b810181811067ffffffffffffffff82111715611b9657611b95611b41565b5b80604052505050565b5f611ba86117bc565b9050611bb48282611b6e565b919050565b5f67ffffffffffffffff821115611bd357611bd2611b41565b5b611bdc826118a8565b9050602081019050919050565b828183375f83830152505050565b5f611c09611c0484611bb9565b611b9f565b905082815260208101848484011115611c2557611c24611b3d565b5b611c30848285611be9565b509392505050565b5f82601f830112611c4c57611c4b611b39565b5b8135611c5c848260208601611bf7565b91505092915050565b5f5f5f5f60808587031215611c7d57611c7c6117c5565b5b5f611c8a878288016119dc565b9450506020611c9b878288016119dc565b9350506040611cac8782880161192f565b925050606085013567ffffffffffffffff811115611ccd57611ccc6117c9565b5b611cd987828801611c38565b91505092959194509250565b5f5f60408385031215611cfb57611cfa6117c5565b5b5f611d08858286016119dc565b9250506020611d19858286016119dc565b9150509250929050565b7f4e487b71000000000000000000000000000000000000000000000000000000005f52602260045260245ffd5b5f6002820490506001821680611d6757607f821691505b602082108103611d7a57611d79611d23565b5b50919050565b7f4552433732313a20617070726f76616c20746f2063757272656e74206f776e655f8201527f7200000000000000000000000000000000000000000000000000000000000000602082015250565b5f611dda60218361188a565b9150611de582611d80565b604082019050919050565b5f6020820190508181035f830152611e0781611dce565b9050919050565b7f4552433732313a20617070726f76652063616c6c6572206973206e6f7420746f5f8201527f6b656e206f776e6572206e6f7220617070726f76656420666f7220616c6c0000602082015250565b5f611e68603e8361188a565b9150611e7382611e0e565b604082019050919050565b5f6020820190508181035f830152611e9581611e5c565b9050919050565b7f4e487b71000000000000000000000000000000000000000000000000000000005f52601160045260245ffd5b5f611ed382611910565b91507fffffffffffffffffffffffffffffffffffffffffffffffffffffffffffffffff8203611f0557611f04611e9c565b5b600182019050919050565b7f4552433732313a2063616c6c6572206973206e6f7420746f6b656e206f776e655f8201527f72206e6f7220617070726f766564000000000000000000000000000000000000602082015250565b5f611f6a602e8361188a565b9150611f7582611f10565b604082019050919050565b5f6020820190508181035f830152611f9781611f5e565b9050919050565b7f4552433732313a20696e76616c696420746f6b656e20494400000000000000005f82015250565b5f611fd260188361188a565b9150611fdd82611f9e565b602082019050919050565b5f6020820190508181035f830152611fff81611fc6565b9050919050565b7f4552433732313a2061646472657373207a65726f206973206e6f7420612076615f8201527f6c6964206f776e65720000000000000000000000000000000000000000000000602082015250565b5f61206060298361188a565b915061206b82612006565b604082019050919050565b5f6020820190508181035f83015261208d81612054565b9050919050565b5f81905092915050565b5f6120a882611880565b6120b28185612094565b93506120c281856020860161189a565b80840191505092915050565b5f6120d9828561209e565b91506120e5828461209e565b91508190509392505050565b5f6040820190508181035f83015261210981856118b8565b9050612118602083018461199e565b9392505050565b5f6040820190508181035f83015261213781856118b8565b90506121466020830184611a2e565b9392505050565b7f4552433732313a207472616e736665722066726f6d20696e636f7272656374205f8201527f6f776e6572000000000000000000000000000000000000000000000000000000602082015250565b5f6121a760258361188a565b91506121b28261214d565b604082019050919050565b5f6020820190508181035f8301526121d48161219b565b9050919050565b7f4552433732313a207472616e7366657220746f20746865207a65726f206164645f8201527f7265737300000000000000000000000000000000000000000000000000000000602082015250565b5f61223560248361188a565b9150612240826121db565b604082019050919050565b5f6020820190508181035f83015261226281612229565b9050919050565b5f61227382611910565b915061227e83611910565b925082820390508181111561229657612295611e9c565b5b92915050565b5f6122a682611910565b91506122b183611910565b92508282019050808211156122c9576122c8611e9c565b5b92915050565b7f4552433732313a20617070726f766520746f2063616c6c6572000000000000005f82015250565b5f61230360198361188a565b915061230e826122cf565b602082019050919050565b5f6020820190508181035f830152612330816122f7565b9050919050565b7f4552433732313a207472616e7366657220746f206e6f6e2045524337323152655f8201527f63656976657220696d706c656d656e7465720000000000000000000000000000602082015250565b5f61239160328361188a565b915061239c82612337565b604082019050919050565b5f6020820190508181035f8301526123be81612385565b9050919050565b7f4e487b71000000000000000000000000000000000000000000000000000000005f52601260045260245ffd5b5f6123fc82611910565b915061240783611910565b925082612417576124166123c5565b5b828204905092915050565b5f61242c82611910565b915061243783611910565b925082612447576124466123c5565b5b828206905092915050565b7f4e487b71000000000000000000000000000000000000000000000000000000005f52603260045260245ffd5b5f81519050919050565b5f82825260208201905092915050565b5f6124a38261247f565b6124ad8185612489565b93506124bd81856020860161189a565b6124c6816118a8565b840191505092915050565b5f6080820190506124e45f83018761199e565b6124f1602083018661199e565b6124fe6040830185611a2e565b81810360608301526125108184612499565b905095945050505050565b5f81519050612529816117f8565b92915050565b5f60208284031215612544576125436117c5565b5b5f6125518482850161251b565b91505092915050565b7f4552433732313a206d696e7420746f20746865207a65726f20616464726573735f82015250565b5f61258e60208361188a565b91506125998261255a565b602082019050919050565b5f6020820190508181035f8301526125bb81612582565b9050919050565b7f4552433732313a20746f6b656e20616c7265616479206d696e746564000000005f82015250565b5f6125f6601c8361188a565b9150612601826125c2565b602082019050919050565b5f6020820190508181035f830152612623816125ea565b905091905056fea26469706673582212203c02179728ff126db99910f1c4d82d1d379a9916c2d0058b6f83c47265be745164736f6c634300081b0033",
  "linkReferences": {},
  "deployedLinkReferences": {}
}