{
  "_format": "hh-sol-artifact-1",
  "contractName": "MyNFT2",
  "sourceName": "contracts/Lock.sol",
  "abi": [
    {
      "inputs": [],
      "stateMutability": "nonpayable",
      "type": "constructor"
    },
    {
      "anonymous": false,
      "inputs": [
        {
          "indexed": true,
          "internalType": "address",
          "name": "owner",
          "type": "address"
        },
        {
          "indexed": true,
          "internalType": "address",
          "name": "approved",
          "type": "address"
        },
        {
          "indexed": true,
          "internalType": "uint256",
          "name": "tokenId",
          "type": "uint256"
        }
      ],
      "name": "Approval",
      "type": "event"
    },
    {
      "anonymous": false,
      "inputs": [
        {
          "indexed": true,
          "internalType": "address",
          "name": "owner",
          "type": "address"
        },
        {
          "indexed": true,
          "internalType": "address",
          "name": "operator",
          "type": "address"
        },
        {
          "indexed": false,
          "internalType": "bool",
          "name": "approved",
          "type": "bool"
        }
      ],
      "name": "ApprovalForAll",
      "type": "event"
    },
    {
      "anonymous": false,
      "inputs": [
        {
          "indexed": true,
          "internalType": "address",
          "name": "owner",
          "type": "address"
        },
        {
          "indexed": false,
          "internalType": "uint256",
          "name": "tokenId",
          "type": "uint256"
        },
        {
          "indexed": false,
          "internalType": "string",
          "name": "tokenURI",
          "type": "string"
        }
      ],
      "name": "NFTMinted",
      "type": "event"
    },
    {
      "anonymous": false,
      "inputs": [
        {
          "indexed": true,
          "internalType": "address",
          "name": "previousOwner",
          "type": "address"
        },
        {
          "indexed": true,
          "internalType": "address",
          "name": "newOwner",
          "type": "address"
        }
      ],
      "name": "OwnershipTransferred",
      "type": "event"
    },
    {
      "anonymous": false,
      "inputs": [
        {
          "indexed": true,
          "internalType": "address",
          "name": "from",
          "type": "address"
        },
        {
          "indexed": true,
          "internalType": "address",
          "name": "to",
          "type": "address"
        },
        {
          "indexed": true,
          "internalType": "uint256",
          "name": "tokenId",
          "type": "uint256"
        }
      ],
      "name": "Transfer",
      "type": "event"
    },
    {
      "inputs": [
        {
          "internalType": "address",
          "name": "to",
          "type": "address"
        },
        {
          "internalType": "uint256",
          "name": "tokenId",
          "type": "uint256"
        }
      ],
      "name": "approve",
      "outputs": [],
      "stateMutability": "nonpayable",
      "type": "function"
    },
    {
      "inputs": [
        {
          "internalType": "address",
          "name": "owner",
          "type": "address"
        }
      ],
      "name": "balanceOf",
      "outputs": [
        {
          "internalType": "uint256",
          "name": "",
          "type": "uint256"
        }
      ],
      "stateMutability": "view",
      "type": "function"
    },
    {
      "inputs": [
        {
          "internalType": "uint256",
          "name": "tokenId",
          "type": "uint256"
        }
      ],
      "name": "getApproved",
      "outputs": [
        {
          "internalType": "address",
          "name": "",
          "type": "address"
        }
      ],
      "stateMutability": "view",
      "type": "function"
    },
    {
      "inputs": [
        {
          "internalType": "address",
          "name": "owner",
          "type": "address"
        },
        {
          "internalType": "address",
          "name": "operator",
          "type": "address"
        }
      ],
      "name": "isApprovedForAll",
      "outputs": [
        {
          "internalType": "bool",
          "name": "",
          "type": "bool"
        }
      ],
      "stateMutability": "view",
      "type": "function"
    },
    {
      "inputs": [
        {
          "internalType": "address",
          "name": "to",
          "type": "address"
        },
        {
          "internalType": "string",
          "name": "tokenURI",
          "type": "string"
        }
      ],
      "name": "mint",
      "outputs": [
        {
          "internalType": "uint256",
          "name": "",
          "type": "uint256"
        }
      ],
      "stateMutability": "nonpayable",
      "type": "function"
    },
    {
      "inputs": [],
      "name": "name",
      "outputs": [
        {
          "internalType": "string",
          "name": "",
          "type": "string"
        }
      ],
      "stateMutability": "view",
      "type": "function"
    },
    {
      "inputs": [],
      "name": "owner",
      "outputs": [
        {
          "internalType": "address",
          "name": "",
          "type": "address"
        }
      ],
      "stateMutability": "view",
      "type": "function"
    },
    {
      "inputs": [
        {
          "internalType": "uint256",
          "name": "tokenId",
          "type": "uint256"
        }
      ],
      "name": "ownerOf",
      "outputs": [
        {
          "internalType": "address",
          "name": "",
          "type": "address"
        }
      ],
      "stateMutability": "view",
      "type": "function"
    },
    {
      "inputs": [],
      "name": "renounceOwnership",
      "outputs": [],
      "stateMutability": "nonpayable",
      "type": "function"
    },
    {
      "inputs": [
        {
          "internalType": "address",
          "name": "from",
          "type": "address"
        },
        {
          "internalType": "address",
          "name": "to",
          "type": "address"
        },
        {
          "internalType": "uint256",
          "name": "tokenId",
          "type": "uint256"
        }
      ],
      "name": "safeTransferFrom",
      "outputs": [],
      "stateMutability": "nonpayable",
      "type": "function"
    },
    {
      "inputs": [
        {
          "internalType": "address",
          "name": "from",
          "type": "address"
        },
        {
          "internalType": "address",
          "name": "to",
          "type": "address"
        },
        {
          "internalType": "uint256",
          "name": "tokenId",
          "type": "uint256"
        },
        {
          "internalType": "bytes",
          "name": "data",
          "type": "bytes"
        }
      ],
      "name": "safeTransferFrom",
      "outputs": [],
      "stateMutability": "nonpayable",
      "type": "function"
    },
    {
      "inputs": [
        {
          "internalType": "address",
          "name": "operator",
          "type": "address"
        },
        {
          "internalType": "bool",
          "name": "approved",
          "type": "bool"
        }
      ],
      "name": "setApprovalForAll",
      "outputs": [],
      "stateMutability": "nonpayable",
      "type": "function"
    },
    {
      "inputs": [
        {
          "internalType": "bytes4",
          "name": "interfaceId",
          "type": "bytes4"
        }
      ],
      "name": "supportsInterface",
      "outputs": [
        {
          "internalType": "bool",
          "name": "",
          "type": "bool"
        }
      ],
      "stateMutability": "view",
      "type": "function"
    },
    {
      "inputs": [],
      "name": "symbol",
      "outputs": [
        {
          "internalType": "string",
          "name": "",
          "type": "string"
        }
      ],
      "stateMutability": "view",
      "type": "function"
    },
    {
      "inputs": [
        {
          "internalType": "address",
          "name": "owner",
          "type": "address"
        },
        {
          "internalType": "uint256",
          "name": "index",
          "type": "uint256"
        }
      ],
      "name": "tokenOfOwnerByIndex",
      "outputs": [
        {
          "internalType": "uint256",
          "name": "",
          "type": "uint256"
        }
      ],
      "stateMutability": "view",
      "type": "function"
    },
    {
      "inputs": [
        {
          "internalType": "uint256",
          "name": "tokenId",
          "type": "uint256"
        }
      ],
      "name": "tokenURI",
      "outputs": [
        {
          "internalType": "string",
          "name": "",
          "type": "string"
        }
      ],
      "stateMutability": "view",
      "type": "function"
    },
    {
      "inputs": [
        {
          "internalType": "address",
          "name": "owner",
          "type": "address"
        }
      ],
      "name": "tokensMintedBy",
      "outputs": [
        {
          "internalType": "uint256[]",
          "name": "",
          "type": "uint256[]"
        }
      ],
      "stateMutability": "view",
      "type": "function"
    },
    {
      "inputs": [
        {
          "internalType": "address",
          "name": "owner",
          "type": "address"
        }
      ],
      "name": "tokensOwnedBy",
      "outputs": [
        {
          "internalType": "uint256[]",
          "name": "",
          "type": "uint256[]"
        }
      ],
      "stateMutability": "view",
      "type": "function"
    },
    {
      "inputs": [
        {
          "internalType": "address",
          "name": "owner",
          "type": "address"
        }
      ],
      "name": "tokensPreviouslyOwnedBy",
      "outputs": [
        {
          "internalType": "uint256[]",
          "name": "",
          "type": "uint256[]"
        }
      ],
      "stateMutability": "view",
      "type": "function"
    },
    {
      "inputs": [
        {
          "internalType": "address",
          "name": "from",
          "type": "address"
        },
        {
          "internalType": "address",
          "name": "to",
          "type": "address"
        },
        {
          "internalType": "uint256",
          "name": "tokenId",
          "type": "uint256"
        }
      ],
      "name": "transferFrom",
      "outputs": [],
      "stateMutability": "nonpayable",
      "type": "function"
    },
    {
      "inputs": [
        {
          "internalType": "address",
          "name": "newOwner",
          "type": "address"
        }
      ],
      "name": "transferOwnership",
      "outputs": [],
      "stateMutability": "nonpayable",
      "type": "function"
    }
  ],
  "bytecode": "0x608060405234801561000f575f5ffd5b506040518060400160405280600681526020017f4d794e46543200000000000000000000000000000000000000000000000000008152506040518060400160405280600481526020017f4d4e465400000000000000000000000000000000000000000000000000000000815250815f908161008a91906103c5565b50806001908161009a91906103c5565b5050506100b96100ae6100be60201b60201c565b6100c560201b60201c565b610494565b5f33905090565b5f60075f9054906101000a900473ffffffffffffffffffffffffffffffffffffffff1690508160075f6101000a81548173ffffffffffffffffffffffffffffffffffffffff021916908373ffffffffffffffffffffffffffffffffffffffff1602179055508173ffffffffffffffffffffffffffffffffffffffff168173ffffffffffffffffffffffffffffffffffffffff167f8be0079c531659141344cd1fd0a4f28419497f9722a3daafe3b4186f6b6457e060405160405180910390a35050565b5f81519050919050565b7f4e487b71000000000000000000000000000000000000000000000000000000005f52604160045260245ffd5b7f4e487b71000000000000000000000000000000000000000000000000000000005f52602260045260245ffd5b5f600282049050600182168061020357607f821691505b602082108103610216576102156101bf565b5b50919050565b5f819050815f5260205f209050919050565b5f6020601f8301049050919050565b5f82821b905092915050565b5f600883026102787fffffffffffffffffffffffffffffffffffffffffffffffffffffffffffffffff8261023d565b610282868361023d565b95508019841693508086168417925050509392505050565b5f819050919050565b5f819050919050565b5f6102c66102c16102bc8461029a565b6102a3565b61029a565b9050919050565b5f819050919050565b6102df836102ac565b6102f36102eb826102cd565b848454610249565b825550505050565b5f5f905090565b61030a6102fb565b6103158184846102d6565b505050565b5b818110156103385761032d5f82610302565b60018101905061031b565b5050565b601f82111561037d5761034e8161021c565b6103578461022e565b81016020851015610366578190505b61037a6103728561022e565b83018261031a565b50505b505050565b5f82821c905092915050565b5f61039d5f1984600802610382565b1980831691505092915050565b5f6103b5838361038e565b9150826002028217905092915050565b6103ce82610188565b67ffffffffffffffff8111156103e7576103e6610192565b5b6103f182546101ec565b6103fc82828561033c565b5f60209050601f83116001811461042d575f841561041b578287015190505b61042585826103aa565b86555061048c565b601f19841661043b8661021c565b5f5b828110156104625784890151825560018201915060208501945060208101905061043d565b8683101561047f578489015161047b601f89168261038e565b8355505b6001600288020188555050505b505050505050565b6136cb806104a15f395ff3fe608060405234801561000f575f5ffd5b5060043610610135575f3560e01c8063715018a6116100b6578063c3bac5fb1161007a578063c3bac5fb14610349578063c87b56dd14610379578063d0def521146103a9578063e985e9c5146103d9578063ea66aeb314610409578063f2fde38b1461043957610135565b8063715018a6146102cb5780638da5cb5b146102d557806395d89b41146102f3578063a22cb46514610311578063b88d4fde1461032d57610135565b80632a0c7799116100fd5780632a0c7799146101ef5780632f745c591461021f57806342842e0e1461024f5780636352211e1461026b57806370a082311461029b57610135565b806301ffc9a71461013957806306fdde0314610169578063081812fc14610187578063095ea7b3146101b757806323b872dd146101d3575b5f5ffd5b610153600480360381019061014e9190612264565b610455565b60405161016091906122a9565b60405180910390f35b610171610536565b60405161017e9190612332565b60405180910390f35b6101a1600480360381019061019c9190612385565b6105c5565b6040516101ae91906123ef565b60405180910390f35b6101d160048036038101906101cc9190612432565b610607565b005b6101ed60048036038101906101e89190612470565b61071d565b005b610209600480360381019061020491906124c0565b61077d565b60405161021691906125a2565b60405180910390f35b61023960048036038101906102349190612432565b610810565b60405161024691906125d1565b60405180910390f35b61026960048036038101906102649190612470565b6108f3565b005b61028560048036038101906102809190612385565b610912565b60405161029291906123ef565b60405180910390f35b6102b560048036038101906102b091906124c0565b6109be565b6040516102c291906125d1565b60405180910390f35b6102d3610a72565b005b6102dd610a85565b6040516102ea91906123ef565b60405180910390f35b6102fb610aad565b6040516103089190612332565b60405180910390f35b61032b60048036038101906103269190612614565b610b3d565b005b6103476004803603810190610342919061277e565b610b53565b005b610363600480360381019061035e91906124c0565b610bb5565b60405161037091906125a2565b60405180910390f35b610393600480360381019061038e9190612385565b610c48565b6040516103a09190612332565b60405180910390f35b6103c360048036038101906103be919061289c565b610d52565b6040516103d091906125d1565b60405180910390f35b6103f360048036038101906103ee91906128f6565b610dec565b60405161040091906122a9565b60405180910390f35b610423600480360381019061041e91906124c0565b610e7a565b60405161043091906125a2565b60405180910390f35b610453600480360381019061044e91906124c0565b610f0d565b005b5f7f80ac58cd000000000000000000000000000000000000000000000000000000007bffffffffffffffffffffffffffffffffffffffffffffffffffffffff1916827bffffffffffffffffffffffffffffffffffffffffffffffffffffffff1916148061051f57507f5b5e139f000000000000000000000000000000000000000000000000000000007bffffffffffffffffffffffffffffffffffffffffffffffffffffffff1916827bffffffffffffffffffffffffffffffffffffffffffffffffffffffff1916145b8061052f575061052e82610f8f565b5b9050919050565b60605f805461054490612961565b80601f016020809104026020016040519081016040528092919081815260200182805461057090612961565b80156105bb5780601f10610592576101008083540402835291602001916105bb565b820191905f5260205f20905b81548152906001019060200180831161059e57829003601f168201915b5050505050905090565b5f6105cf82610ff8565b60045f8381526020019081526020015f205f9054906101000a900473ffffffffffffffffffffffffffffffffffffffff169050919050565b5f61061182610912565b90508073ffffffffffffffffffffffffffffffffffffffff168373ffffffffffffffffffffffffffffffffffffffff1603610681576040517f08c379a000000000000000000000000000000000000000000000000000000000815260040161067890612a01565b60405180910390fd5b8073ffffffffffffffffffffffffffffffffffffffff166106a0611043565b73ffffffffffffffffffffffffffffffffffffffff1614806106cf57506106ce816106c9611043565b610dec565b5b61070e576040517f08c379a000000000000000000000000000000000000000000000000000000000815260040161070590612a8f565b60405180910390fd5b610718838361104a565b505050565b61072e610728611043565b82611100565b61076d576040517f08c379a000000000000000000000000000000000000000000000000000000000815260040161076490612b1d565b60405180910390fd5b610778838383611194565b505050565b6060600b5f8373ffffffffffffffffffffffffffffffffffffffff1673ffffffffffffffffffffffffffffffffffffffff1681526020019081526020015f2080548060200260200160405190810160405280929190818152602001828054801561080457602002820191905f5260205f20905b8154815260200190600101908083116107f0575b50505050509050919050565b5f60095f8473ffffffffffffffffffffffffffffffffffffffff1673ffffffffffffffffffffffffffffffffffffffff1681526020019081526020015f20805490508210610893576040517f08c379a000000000000000000000000000000000000000000000000000000000815260040161088a90612b85565b60405180910390fd5b60095f8473ffffffffffffffffffffffffffffffffffffffff1673ffffffffffffffffffffffffffffffffffffffff1681526020019081526020015f2082815481106108e2576108e1612ba3565b5b905f5260205f200154905092915050565b61090d83838360405180602001604052805f815250610b53565b505050565b5f5f60025f8481526020019081526020015f205f9054906101000a900473ffffffffffffffffffffffffffffffffffffffff1690505f73ffffffffffffffffffffffffffffffffffffffff168173ffffffffffffffffffffffffffffffffffffffff16036109b5576040517f08c379a00000000000000000000000000000000000000000000000000000000081526004016109ac90612c1a565b60405180910390fd5b80915050919050565b5f5f73ffffffffffffffffffffffffffffffffffffffff168273ffffffffffffffffffffffffffffffffffffffff1603610a2d576040517f08c379a0000000000000000000000000000000000000000000000000000000008152600401610a2490612ca8565b60405180910390fd5b60035f8373ffffffffffffffffffffffffffffffffffffffff1673ffffffffffffffffffffffffffffffffffffffff1681526020019081526020015f20549050919050565b610a7a6113ef565b610a835f61146d565b565b5f60075f9054906101000a900473ffffffffffffffffffffffffffffffffffffffff16905090565b606060018054610abc90612961565b80601f0160208091040260200160405190810160405280929190818152602001828054610ae890612961565b8015610b335780601f10610b0a57610100808354040283529160200191610b33565b820191905f5260205f20905b815481529060010190602001808311610b1657829003601f168201915b5050505050905090565b610b4f610b48611043565b8383611530565b5050565b610b64610b5e611043565b83611100565b610ba3576040517f08c379a0000000000000000000000000000000000000000000000000000000008152600401610b9a90612b1d565b60405180910390fd5b610baf84848484611697565b50505050565b6060600c5f8373ffffffffffffffffffffffffffffffffffffffff1673ffffffffffffffffffffffffffffffffffffffff1681526020019081526020015f20805480602002602001604051908101604052809291908181526020018280548015610c3c57602002820191905f5260205f20905b815481526020019060010190808311610c28575b50505050509050919050565b6060610c5382610ff8565b5f60065f8481526020019081526020015f208054610c7090612961565b80601f0160208091040260200160405190810160405280929190818152602001828054610c9c90612961565b8015610ce75780601f10610cbe57610100808354040283529160200191610ce7565b820191905f5260205f20905b815481529060010190602001808311610cca57829003601f168201915b505050505090505f610cf76116f3565b90505f815103610d0b578192505050610d4d565b5f82511115610d3f578082604051602001610d27929190612d00565b60405160208183030381529060405292505050610d4d565b610d4884611709565b925050505b919050565b5f610d5d600861176e565b5f610d686008611782565b9050610d74848261178e565b610d7e81846117ab565b610d888482611816565b610d9284826118dd565b8373ffffffffffffffffffffffffffffffffffffffff167fd35bb95e09c04b219e35047ce7b7b300e3384264ef84a40456943dbc0fc17c148285604051610dda929190612d23565b60405180910390a28091505092915050565b5f60055f8473ffffffffffffffffffffffffffffffffffffffff1673ffffffffffffffffffffffffffffffffffffffff1681526020019081526020015f205f8373ffffffffffffffffffffffffffffffffffffffff1673ffffffffffffffffffffffffffffffffffffffff1681526020019081526020015f205f9054906101000a900460ff16905092915050565b606060095f8373ffffffffffffffffffffffffffffffffffffffff1673ffffffffffffffffffffffffffffffffffffffff1681526020019081526020015f20805480602002602001604051908101604052809291908181526020018280548015610f0157602002820191905f5260205f20905b815481526020019060010190808311610eed575b50505050509050919050565b610f156113ef565b5f73ffffffffffffffffffffffffffffffffffffffff168173ffffffffffffffffffffffffffffffffffffffff1603610f83576040517f08c379a0000000000000000000000000000000000000000000000000000000008152600401610f7a90612dc1565b60405180910390fd5b610f8c8161146d565b50565b5f7f01ffc9a7000000000000000000000000000000000000000000000000000000007bffffffffffffffffffffffffffffffffffffffffffffffffffffffff1916827bffffffffffffffffffffffffffffffffffffffffffffffffffffffff1916149050919050565b61100181611942565b611040576040517f08c379a000000000000000000000000000000000000000000000000000000000815260040161103790612c1a565b60405180910390fd5b50565b5f33905090565b8160045f8381526020019081526020015f205f6101000a81548173ffffffffffffffffffffffffffffffffffffffff021916908373ffffffffffffffffffffffffffffffffffffffff160217905550808273ffffffffffffffffffffffffffffffffffffffff166110ba83610912565b73ffffffffffffffffffffffffffffffffffffffff167f8c5be1e5ebec7d5bd14f71427d1e84f3dd0314c0f7b2291e5b200ac8c7c3b92560405160405180910390a45050565b5f5f61110b83610912565b90508073ffffffffffffffffffffffffffffffffffffffff168473ffffffffffffffffffffffffffffffffffffffff16148061114d575061114c8185610dec565b5b8061118b57508373ffffffffffffffffffffffffffffffffffffffff16611173846105c5565b73ffffffffffffffffffffffffffffffffffffffff16145b91505092915050565b8273ffffffffffffffffffffffffffffffffffffffff166111b482610912565b73ffffffffffffffffffffffffffffffffffffffff161461120a576040517f08c379a000000000000000000000000000000000000000000000000000000000815260040161120190612e4f565b60405180910390fd5b5f73ffffffffffffffffffffffffffffffffffffffff168273ffffffffffffffffffffffffffffffffffffffff1603611278576040517f08c379a000000000000000000000000000000000000000000000000000000000815260040161126f90612edd565b60405180910390fd5b6112838383836119aa565b61128d5f8261104a565b600160035f8573ffffffffffffffffffffffffffffffffffffffff1673ffffffffffffffffffffffffffffffffffffffff1681526020019081526020015f205f8282546112da9190612f28565b92505081905550600160035f8473ffffffffffffffffffffffffffffffffffffffff1673ffffffffffffffffffffffffffffffffffffffff1681526020019081526020015f205f82825461132e9190612f5b565b925050819055508160025f8381526020019081526020015f205f6101000a81548173ffffffffffffffffffffffffffffffffffffffff021916908373ffffffffffffffffffffffffffffffffffffffff160217905550808273ffffffffffffffffffffffffffffffffffffffff168473ffffffffffffffffffffffffffffffffffffffff167fddf252ad1be2c89b69c2b068fc378daa952ba7f163c4a11628f55a4df523b3ef60405160405180910390a46113ea838383611ab4565b505050565b6113f7611043565b73ffffffffffffffffffffffffffffffffffffffff16611415610a85565b73ffffffffffffffffffffffffffffffffffffffff161461146b576040517f08c379a000000000000000000000000000000000000000000000000000000000815260040161146290612fd8565b60405180910390fd5b565b5f60075f9054906101000a900473ffffffffffffffffffffffffffffffffffffffff1690508160075f6101000a81548173ffffffffffffffffffffffffffffffffffffffff021916908373ffffffffffffffffffffffffffffffffffffffff1602179055508173ffffffffffffffffffffffffffffffffffffffff168173ffffffffffffffffffffffffffffffffffffffff167f8be0079c531659141344cd1fd0a4f28419497f9722a3daafe3b4186f6b6457e060405160405180910390a35050565b8173ffffffffffffffffffffffffffffffffffffffff168373ffffffffffffffffffffffffffffffffffffffff160361159e576040517f08c379a000000000000000000000000000000000000000000000000000000000815260040161159590613040565b60405180910390fd5b8060055f8573ffffffffffffffffffffffffffffffffffffffff1673ffffffffffffffffffffffffffffffffffffffff1681526020019081526020015f205f8473ffffffffffffffffffffffffffffffffffffffff1673ffffffffffffffffffffffffffffffffffffffff1681526020019081526020015f205f6101000a81548160ff0219169083151502179055508173ffffffffffffffffffffffffffffffffffffffff168373ffffffffffffffffffffffffffffffffffffffff167f17307eab39ab6107e8899845ad3d59bd9653f200f220920489ca2b5937696c318360405161168a91906122a9565b60405180910390a3505050565b6116a2848484611194565b6116ae84848484611ab9565b6116ed576040517f08c379a00000000000000000000000000000000000000000000000000000000081526004016116e4906130ce565b60405180910390fd5b50505050565b606060405180602001604052805f815250905090565b606061171482610ff8565b5f61171d6116f3565b90505f81511161173b5760405180602001604052805f815250611766565b8061174584611c3b565b604051602001611756929190612d00565b6040516020818303038152906040525b915050919050565b6001815f015f828254019250508190555050565b5f815f01549050919050565b6117a7828260405180602001604052805f815250611d94565b5050565b6117b482611942565b6117f3576040517f08c379a00000000000000000000000000000000000000000000000000000000081526004016117ea9061315c565b60405180910390fd5b8060065f8481526020019081526020015f209081611811919061331a565b505050565b60095f8373ffffffffffffffffffffffffffffffffffffffff1673ffffffffffffffffffffffffffffffffffffffff1681526020019081526020015f2081908060018154018082558091505060019003905f5260205f20015f9091909190915055600160095f8473ffffffffffffffffffffffffffffffffffffffff1673ffffffffffffffffffffffffffffffffffffffff1681526020019081526020015f20805490506118c49190612f28565b600a5f8381526020019081526020015f20819055505050565b600b5f8373ffffffffffffffffffffffffffffffffffffffff1673ffffffffffffffffffffffffffffffffffffffff1681526020019081526020015f2081908060018154018082558091505060019003905f5260205f20015f90919091909150555050565b5f5f73ffffffffffffffffffffffffffffffffffffffff1660025f8481526020019081526020015f205f9054906101000a900473ffffffffffffffffffffffffffffffffffffffff1673ffffffffffffffffffffffffffffffffffffffff1614159050919050565b6119b5838383611dee565b5f73ffffffffffffffffffffffffffffffffffffffff168373ffffffffffffffffffffffffffffffffffffffff1614158015611a1d57508173ffffffffffffffffffffffffffffffffffffffff168373ffffffffffffffffffffffffffffffffffffffff1614155b15611a3757611a2c8382611df3565b611a368382611fa8565b5b5f73ffffffffffffffffffffffffffffffffffffffff168273ffffffffffffffffffffffffffffffffffffffff1614158015611a9f57508273ffffffffffffffffffffffffffffffffffffffff168273ffffffffffffffffffffffffffffffffffffffff1614155b15611aaf57611aae8282611816565b5b505050565b505050565b5f611ad98473ffffffffffffffffffffffffffffffffffffffff1661200d565b15611c2e578373ffffffffffffffffffffffffffffffffffffffff1663150b7a02611b02611043565b8786866040518563ffffffff1660e01b8152600401611b24949392919061343b565b6020604051808303815f875af1925050508015611b5f57506040513d601f19601f82011682018060405250810190611b5c9190613499565b60015b611bde573d805f8114611b8d576040519150601f19603f3d011682016040523d82523d5f602084013e611b92565b606091505b505f815103611bd6576040517f08c379a0000000000000000000000000000000000000000000000000000000008152600401611bcd906130ce565b60405180910390fd5b805181602001fd5b63150b7a0260e01b7bffffffffffffffffffffffffffffffffffffffffffffffffffffffff1916817bffffffffffffffffffffffffffffffffffffffffffffffffffffffff191614915050611c33565b600190505b949350505050565b60605f8203611c81576040518060400160405280600181526020017f30000000000000000000000000000000000000000000000000000000000000008152509050611d8f565b5f8290505f5b5f8214611cb0578080611c99906134c4565b915050600a82611ca99190613538565b9150611c87565b5f8167ffffffffffffffff811115611ccb57611cca61265a565b5b6040519080825280601f01601f191660200182016040528015611cfd5781602001600182028036833780820191505090505b5090505b5f8514611d8857600182611d159190612f28565b9150600a85611d249190613568565b6030611d309190612f5b565b60f81b818381518110611d4657611d45612ba3565b5b60200101907effffffffffffffffffffffffffffffffffffffffffffffffffffffffffffff191690815f1a905350600a85611d819190613538565b9450611d01565b8093505050505b919050565b611d9e838361202f565b611daa5f848484611ab9565b611de9576040517f08c379a0000000000000000000000000000000000000000000000000000000008152600401611de0906130ce565b60405180910390fd5b505050565b505050565b5f600160095f8573ffffffffffffffffffffffffffffffffffffffff1673ffffffffffffffffffffffffffffffffffffffff1681526020019081526020015f2080549050611e419190612f28565b90505f600a5f8481526020019081526020015f20549050818114611f2e575f60095f8673ffffffffffffffffffffffffffffffffffffffff1673ffffffffffffffffffffffffffffffffffffffff1681526020019081526020015f208381548110611eaf57611eae612ba3565b5b905f5260205f20015490508060095f8773ffffffffffffffffffffffffffffffffffffffff1673ffffffffffffffffffffffffffffffffffffffff1681526020019081526020015f208381548110611f0a57611f09612ba3565b5b905f5260205f20018190555081600a5f8381526020019081526020015f2081905550505b60095f8573ffffffffffffffffffffffffffffffffffffffff1673ffffffffffffffffffffffffffffffffffffffff1681526020019081526020015f20805480611f7b57611f7a613598565b5b600190038181905f5260205f20015f90559055600a5f8481526020019081526020015f205f905550505050565b600c5f8373ffffffffffffffffffffffffffffffffffffffff1673ffffffffffffffffffffffffffffffffffffffff1681526020019081526020015f2081908060018154018082558091505060019003905f5260205f20015f90919091909150555050565b5f5f8273ffffffffffffffffffffffffffffffffffffffff163b119050919050565b5f73ffffffffffffffffffffffffffffffffffffffff168273ffffffffffffffffffffffffffffffffffffffff160361209d576040517f08c379a00000000000000000000000000000000000000000000000000000000081526004016120949061360f565b60405180910390fd5b6120a681611942565b156120e6576040517f08c379a00000000000000000000000000000000000000000000000000000000081526004016120dd90613677565b60405180910390fd5b6120f15f83836119aa565b600160035f8473ffffffffffffffffffffffffffffffffffffffff1673ffffffffffffffffffffffffffffffffffffffff1681526020019081526020015f205f82825461213e9190612f5b565b925050819055508160025f8381526020019081526020015f205f6101000a81548173ffffffffffffffffffffffffffffffffffffffff021916908373ffffffffffffffffffffffffffffffffffffffff160217905550808273ffffffffffffffffffffffffffffffffffffffff165f73ffffffffffffffffffffffffffffffffffffffff167fddf252ad1be2c89b69c2b068fc378daa952ba7f163c4a11628f55a4df523b3ef60405160405180910390a46121fa5f8383611ab4565b5050565b5f604051905090565b5f5ffd5b5f5ffd5b5f7fffffffff0000000000000000000000000000000000000000000000000000000082169050919050565b6122438161220f565b811461224d575f5ffd5b50565b5f8135905061225e8161223a565b92915050565b5f6020828403121561227957612278612207565b5b5f61228684828501612250565b91505092915050565b5f8115159050919050565b6122a38161228f565b82525050565b5f6020820190506122bc5f83018461229a565b92915050565b5f81519050919050565b5f82825260208201905092915050565b8281835e5f83830152505050565b5f601f19601f8301169050919050565b5f612304826122c2565b61230e81856122cc565b935061231e8185602086016122dc565b612327816122ea565b840191505092915050565b5f6020820190508181035f83015261234a81846122fa565b905092915050565b5f819050919050565b61236481612352565b811461236e575f5ffd5b50565b5f8135905061237f8161235b565b92915050565b5f6020828403121561239a57612399612207565b5b5f6123a784828501612371565b91505092915050565b5f73ffffffffffffffffffffffffffffffffffffffff82169050919050565b5f6123d9826123b0565b9050919050565b6123e9816123cf565b82525050565b5f6020820190506124025f8301846123e0565b92915050565b612411816123cf565b811461241b575f5ffd5b50565b5f8135905061242c81612408565b92915050565b5f5f6040838503121561244857612447612207565b5b5f6124558582860161241e565b925050602061246685828601612371565b9150509250929050565b5f5f5f6060848603121561248757612486612207565b5b5f6124948682870161241e565b93505060206124a58682870161241e565b92505060406124b686828701612371565b9150509250925092565b5f602082840312156124d5576124d4612207565b5b5f6124e28482850161241e565b91505092915050565b5f81519050919050565b5f82825260208201905092915050565b5f819050602082019050919050565b61251d81612352565b82525050565b5f61252e8383612514565b60208301905092915050565b5f602082019050919050565b5f612550826124eb565b61255a81856124f5565b935061256583612505565b805f5b8381101561259557815161257c8882612523565b97506125878361253a565b925050600181019050612568565b5085935050505092915050565b5f6020820190508181035f8301526125ba8184612546565b905092915050565b6125cb81612352565b82525050565b5f6020820190506125e45f8301846125c2565b92915050565b6125f38161228f565b81146125fd575f5ffd5b50565b5f8135905061260e816125ea565b92915050565b5f5f6040838503121561262a57612629612207565b5b5f6126378582860161241e565b925050602061264885828601612600565b9150509250929050565b5f5ffd5b5f5ffd5b7f4e487b71000000000000000000000000000000000000000000000000000000005f52604160045260245ffd5b612690826122ea565b810181811067ffffffffffffffff821117156126af576126ae61265a565b5b80604052505050565b5f6126c16121fe565b90506126cd8282612687565b919050565b5f67ffffffffffffffff8211156126ec576126eb61265a565b5b6126f5826122ea565b9050602081019050919050565b828183375f83830152505050565b5f61272261271d846126d2565b6126b8565b90508281526020810184848401111561273e5761273d612656565b5b612749848285612702565b509392505050565b5f82601f83011261276557612764612652565b5b8135612775848260208601612710565b91505092915050565b5f5f5f5f6080858703121561279657612795612207565b5b5f6127a38782880161241e565b94505060206127b48782880161241e565b93505060406127c587828801612371565b925050606085013567ffffffffffffffff8111156127e6576127e561220b565b5b6127f287828801612751565b91505092959194509250565b5f67ffffffffffffffff8211156128185761281761265a565b5b612821826122ea565b9050602081019050919050565b5f61284061283b846127fe565b6126b8565b90508281526020810184848401111561285c5761285b612656565b5b612867848285612702565b509392505050565b5f82601f83011261288357612882612652565b5b813561289384826020860161282e565b91505092915050565b5f5f604083850312156128b2576128b1612207565b5b5f6128bf8582860161241e565b925050602083013567ffffffffffffffff8111156128e0576128df61220b565b5b6128ec8582860161286f565b9150509250929050565b5f5f6040838503121561290c5761290b612207565b5b5f6129198582860161241e565b925050602061292a8582860161241e565b9150509250929050565b7f4e487b71000000000000000000000000000000000000000000000000000000005f52602260045260245ffd5b5f600282049050600182168061297857607f821691505b60208210810361298b5761298a612934565b5b50919050565b7f4552433732313a20617070726f76616c20746f2063757272656e74206f776e655f8201527f7200000000000000000000000000000000000000000000000000000000000000602082015250565b5f6129eb6021836122cc565b91506129f682612991565b604082019050919050565b5f6020820190508181035f830152612a18816129df565b9050919050565b7f4552433732313a20617070726f76652063616c6c6572206973206e6f7420746f5f8201527f6b656e206f776e6572206e6f7220617070726f76656420666f7220616c6c0000602082015250565b5f612a79603e836122cc565b9150612a8482612a1f565b604082019050919050565b5f6020820190508181035f830152612aa681612a6d565b9050919050565b7f4552433732313a2063616c6c6572206973206e6f7420746f6b656e206f776e655f8201527f72206e6f7220617070726f766564000000000000000000000000000000000000602082015250565b5f612b07602e836122cc565b9150612b1282612aad565b604082019050919050565b5f6020820190508181035f830152612b3481612afb565b9050919050565b7f4f776e657220696e646578206f7574206f6620626f756e6473000000000000005f82015250565b5f612b6f6019836122cc565b9150612b7a82612b3b565b602082019050919050565b5f6020820190508181035f830152612b9c81612b63565b9050919050565b7f4e487b71000000000000000000000000000000000000000000000000000000005f52603260045260245ffd5b7f4552433732313a20696e76616c696420746f6b656e20494400000000000000005f82015250565b5f612c046018836122cc565b9150612c0f82612bd0565b602082019050919050565b5f6020820190508181035f830152612c3181612bf8565b9050919050565b7f4552433732313a2061646472657373207a65726f206973206e6f7420612076615f8201527f6c6964206f776e65720000000000000000000000000000000000000000000000602082015250565b5f612c926029836122cc565b9150612c9d82612c38565b604082019050919050565b5f6020820190508181035f830152612cbf81612c86565b9050919050565b5f81905092915050565b5f612cda826122c2565b612ce48185612cc6565b9350612cf48185602086016122dc565b80840191505092915050565b5f612d0b8285612cd0565b9150612d178284612cd0565b91508190509392505050565b5f604082019050612d365f8301856125c2565b8181036020830152612d4881846122fa565b90509392505050565b7f4f776e61626c653a206e6577206f776e657220697320746865207a65726f20615f8201527f6464726573730000000000000000000000000000000000000000000000000000602082015250565b5f612dab6026836122cc565b9150612db682612d51565b604082019050919050565b5f6020820190508181035f830152612dd881612d9f565b9050919050565b7f4552433732313a207472616e736665722066726f6d20696e636f7272656374205f8201527f6f776e6572000000000000000000000000000000000000000000000000000000602082015250565b5f612e396025836122cc565b9150612e4482612ddf565b604082019050919050565b5f6020820190508181035f830152612e6681612e2d565b9050919050565b7f4552433732313a207472616e7366657220746f20746865207a65726f206164645f8201527f7265737300000000000000000000000000000000000000000000000000000000602082015250565b5f612ec76024836122cc565b9150612ed282612e6d565b604082019050919050565b5f6020820190508181035f830152612ef481612ebb565b9050919050565b7f4e487b71000000000000000000000000000000000000000000000000000000005f52601160045260245ffd5b5f612f3282612352565b9150612f3d83612352565b9250828203905081811115612f5557612f54612efb565b5b92915050565b5f612f6582612352565b9150612f7083612352565b9250828201905080821115612f8857612f87612efb565b5b92915050565b7f4f776e61626c653a2063616c6c6572206973206e6f7420746865206f776e65725f82015250565b5f612fc26020836122cc565b9150612fcd82612f8e565b602082019050919050565b5f6020820190508181035f830152612fef81612fb6565b9050919050565b7f4552433732313a20617070726f766520746f2063616c6c6572000000000000005f82015250565b5f61302a6019836122cc565b915061303582612ff6565b602082019050919050565b5f6020820190508181035f8301526130578161301e565b9050919050565b7f4552433732313a207472616e7366657220746f206e6f6e2045524337323152655f8201527f63656976657220696d706c656d656e7465720000000000000000000000000000602082015250565b5f6130b86032836122cc565b91506130c38261305e565b604082019050919050565b5f6020820190508181035f8301526130e5816130ac565b9050919050565b7f45524337323155524953746f726167653a2055524920736574206f66206e6f6e5f8201527f6578697374656e7420746f6b656e000000000000000000000000000000000000602082015250565b5f613146602e836122cc565b9150613151826130ec565b604082019050919050565b5f6020820190508181035f8301526131738161313a565b9050919050565b5f819050815f5260205f209050919050565b5f6020601f8301049050919050565b5f82821b905092915050565b5f600883026131d67fffffffffffffffffffffffffffffffffffffffffffffffffffffffffffffffff8261319b565b6131e0868361319b565b95508019841693508086168417925050509392505050565b5f819050919050565b5f61321b61321661321184612352565b6131f8565b612352565b9050919050565b5f819050919050565b61323483613201565b61324861324082613222565b8484546131a7565b825550505050565b5f5f905090565b61325f613250565b61326a81848461322b565b505050565b5b8181101561328d576132825f82613257565b600181019050613270565b5050565b601f8211156132d2576132a38161317a565b6132ac8461318c565b810160208510156132bb578190505b6132cf6132c78561318c565b83018261326f565b50505b505050565b5f82821c905092915050565b5f6132f25f19846008026132d7565b1980831691505092915050565b5f61330a83836132e3565b9150826002028217905092915050565b613323826122c2565b67ffffffffffffffff81111561333c5761333b61265a565b5b6133468254612961565b613351828285613291565b5f60209050601f831160018114613382575f8415613370578287015190505b61337a85826132ff565b8655506133e1565b601f1984166133908661317a565b5f5b828110156133b757848901518255600182019150602085019450602081019050613392565b868310156133d457848901516133d0601f8916826132e3565b8355505b6001600288020188555050505b505050505050565b5f81519050919050565b5f82825260208201905092915050565b5f61340d826133e9565b61341781856133f3565b93506134278185602086016122dc565b613430816122ea565b840191505092915050565b5f60808201905061344e5f8301876123e0565b61345b60208301866123e0565b61346860408301856125c2565b818103606083015261347a8184613403565b905095945050505050565b5f815190506134938161223a565b92915050565b5f602082840312156134ae576134ad612207565b5b5f6134bb84828501613485565b91505092915050565b5f6134ce82612352565b91507fffffffffffffffffffffffffffffffffffffffffffffffffffffffffffffffff8203613500576134ff612efb565b5b600182019050919050565b7f4e487b71000000000000000000000000000000000000000000000000000000005f52601260045260245ffd5b5f61354282612352565b915061354d83612352565b92508261355d5761355c61350b565b5b828204905092915050565b5f61357282612352565b915061357d83612352565b92508261358d5761358c61350b565b5b828206905092915050565b7f4e487b71000000000000000000000000000000000000000000000000000000005f52603160045260245ffd5b7f4552433732313a206d696e7420746f20746865207a65726f20616464726573735f82015250565b5f6135f96020836122cc565b9150613604826135c5565b602082019050919050565b5f6020820190508181035f830152613626816135ed565b9050919050565b7f4552433732313a20746f6b656e20616c7265616479206d696e746564000000005f82015250565b5f613661601c836122cc565b915061366c8261362d565b602082019050919050565b5f6020820190508181035f83015261368e81613655565b905091905056fea26469706673582212201754c05434e6b274765cb1fe696aa6dfbfaf586df0fc8285e868e4bf5865794764736f6c634300081b0033",
  "linkReferences": {},
  "deployedLinkReferences": {}
}